{
  "_format": "hh-sol-artifact-1",
  "contractName": "Uniswap",
  "sourceName": "contracts/uniswap.sol",
  "abi": [
    {
      "inputs": [
        {
          "internalType": "uint256",
          "name": "_reserveA",
          "type": "uint256"
        },
        {
          "internalType": "uint256",
          "name": "_reserveB",
          "type": "uint256"
        },
        {
          "internalType": "address",
          "name": "_tokenA",
          "type": "address"
        },
        {
          "internalType": "address",
          "name": "_tokenB",
          "type": "address"
        }
      ],
      "stateMutability": "nonpayable",
      "type": "constructor"
    },
    {
      "inputs": [
        {
          "internalType": "uint256",
          "name": "amountIn",
          "type": "uint256"
        },
        {
          "internalType": "address",
          "name": "tokenAdded",
          "type": "address"
        }
      ],
      "name": "add",
      "outputs": [],
      "stateMutability": "nonpayable",
      "type": "function"
    },
    {
      "inputs": [
        {
          "internalType": "uint256",
          "name": "amountIn",
          "type": "uint256"
        },
        {
          "internalType": "uint256",
          "name": "reserveIn",
          "type": "uint256"
        },
        {
          "internalType": "uint256",
          "name": "reserveOut",
          "type": "uint256"
        }
      ],
      "name": "getAmount",
      "outputs": [
        {
          "internalType": "uint256",
          "name": "",
          "type": "uint256"
        }
      ],
      "stateMutability": "pure",
      "type": "function"
    },
    {
      "inputs": [],
      "name": "read",
      "outputs": [
        {
          "internalType": "uint256",
          "name": "",
          "type": "uint256"
        },
        {
          "internalType": "uint256",
          "name": "",
          "type": "uint256"
        }
      ],
      "stateMutability": "view",
      "type": "function"
    },
    {
      "inputs": [
        {
          "internalType": "uint256",
          "name": "amountInput",
          "type": "uint256"
        },
        {
          "internalType": "address",
          "name": "tokenFrom",
          "type": "address"
        }
      ],
      "name": "swap",
      "outputs": [],
      "stateMutability": "nonpayable",
      "type": "function"
    }
  ],
  "bytecode": "0x60806040523480156200001157600080fd5b50604051620009bc380380620009bc83398181016040528101906200003791906200018a565b836000819055508260018190555081600260006101000a81548173ffffffffffffffffffffffffffffffffffffffff021916908373ffffffffffffffffffffffffffffffffffffffff16021790555080600360006101000a81548173ffffffffffffffffffffffffffffffffffffffff021916908373ffffffffffffffffffffffffffffffffffffffff1602179055508284620000d591906200022b565b6004819055505050505062000263565b600080fd5b6000819050919050565b620000ff81620000ea565b81146200010b57600080fd5b50565b6000815190506200011f81620000f4565b92915050565b600073ffffffffffffffffffffffffffffffffffffffff82169050919050565b6000620001528262000125565b9050919050565b620001648162000145565b81146200017057600080fd5b50565b600081519050620001848162000159565b92915050565b60008060008060808587031215620001a757620001a6620000e5565b5b6000620001b7878288016200010e565b9450506020620001ca878288016200010e565b9350506040620001dd8782880162000173565b9250506060620001f08782880162000173565b91505092959194509250565b7f4e487b7100000000000000000000000000000000000000000000000000000000600052601260045260246000fd5b60006200023882620000ea565b91506200024583620000ea565b925082620002585762000257620001fc565b5b828204905092915050565b61074980620002736000396000f3fe608060405234801561001057600080fd5b506004361061004c5760003560e01c806329c45cb6146100515780632b8bbbe81461008157806357de26a41461009d578063d3986f08146100bc575b600080fd5b61006b60048036038101906100669190610496565b6100d8565b60405161007891906104f8565b60405180910390f35b61009b60048036038101906100969190610571565b610121565b005b6100a561025b565b6040516100b39291906105b1565b60405180910390f35b6100d660048036038101906100d19190610571565b61026c565b005b60008082846100e79190610609565b9050600084866100f7919061064b565b8261010291906106ae565b90506000818561011291906106df565b90508093505050509392505050565b600260009054906101000a900473ffffffffffffffffffffffffffffffffffffffff1673ffffffffffffffffffffffffffffffffffffffff168173ffffffffffffffffffffffffffffffffffffffff16036101b95781600080828254610187919061064b565b925050819055506004548261019c91906106ae565b600160008282546101ad919061064b565b92505081905550610257565b600360009054906101000a900473ffffffffffffffffffffffffffffffffffffffff1673ffffffffffffffffffffffffffffffffffffffff168173ffffffffffffffffffffffffffffffffffffffff1603610251578160016000828254610220919061064b565b92505081905550600454826102359190610609565b600080828254610245919061064b565b92505081905550610256565b600080fd5b5b5050565b600080600054600154915091509091565b600260009054906101000a900473ffffffffffffffffffffffffffffffffffffffff1673ffffffffffffffffffffffffffffffffffffffff168173ffffffffffffffffffffffffffffffffffffffff160361035f5760006102d2836000546001546100d8565b9050826000808282546102e5919061064b565b9250508190555080600160008282546102fe91906106df565b92505081905550600060045460005461031791906106ae565b905060006001548261032991906106df565b905061035781600360009054906101000a900473ffffffffffffffffffffffffffffffffffffffff16610121565b505050610457565b600360009054906101000a900473ffffffffffffffffffffffffffffffffffffffff1673ffffffffffffffffffffffffffffffffffffffff168173ffffffffffffffffffffffffffffffffffffffff16036104515760006103c5836001546000546100d8565b905082600160008282546103d9919061064b565b92505081905550806000808282546103f191906106df565b92505081905550600060045460015461040a9190610609565b9050600080548261041b91906106df565b905061044981600260009054906101000a900473ffffffffffffffffffffffffffffffffffffffff16610121565b505050610456565b600080fd5b5b5050565b600080fd5b6000819050919050565b61047381610460565b811461047e57600080fd5b50565b6000813590506104908161046a565b92915050565b6000806000606084860312156104af576104ae61045b565b5b60006104bd86828701610481565b93505060206104ce86828701610481565b92505060406104df86828701610481565b9150509250925092565b6104f281610460565b82525050565b600060208201905061050d60008301846104e9565b92915050565b600073ffffffffffffffffffffffffffffffffffffffff82169050919050565b600061053e82610513565b9050919050565b61054e81610533565b811461055957600080fd5b50565b60008135905061056b81610545565b92915050565b600080604083850312156105885761058761045b565b5b600061059685828601610481565b92505060206105a78582860161055c565b9150509250929050565b60006040820190506105c660008301856104e9565b6105d360208301846104e9565b9392505050565b7f4e487b7100000000000000000000000000000000000000000000000000000000600052601160045260246000fd5b600061061482610460565b915061061f83610460565b925082820261062d81610460565b91508282048414831517610644576106436105da565b5b5092915050565b600061065682610460565b915061066183610460565b9250828201905080821115610679576106786105da565b5b92915050565b7f4e487b7100000000000000000000000000000000000000000000000000000000600052601260045260246000fd5b60006106b982610460565b91506106c483610460565b9250826106d4576106d361067f565b5b828204905092915050565b60006106ea82610460565b91506106f583610460565b925082820390508181111561070d5761070c6105da565b5b9291505056fea2646970667358221220b574cf0b6e04a461a83c6d125803bede696bef7d5f271315c89866bf0971a6c364736f6c63430008180033",
  "linkReferences": {},
  "deployedLinkReferences": {}
}